{
  "_format": "hh-sol-artifact-1",
  "contractName": "patients",
  "sourceName": "contracts/patients.sol",
  "abi": [
    {
      "inputs": [],
      "stateMutability": "nonpayable",
      "type": "constructor"
    },
    {
      "inputs": [
        {
          "internalType": "address",
          "name": "_address",
          "type": "address"
        }
      ],
      "name": "addDoctor",
      "outputs": [],
      "stateMutability": "nonpayable",
      "type": "function"
    },
    {
      "inputs": [
        {
          "internalType": "uint256",
          "name": "_cipa",
          "type": "uint256"
        },
        {
          "internalType": "string",
          "name": "_cid",
          "type": "string"
        }
      ],
      "name": "addFile",
      "outputs": [],
      "stateMutability": "nonpayable",
      "type": "function"
    },
    {
      "inputs": [
        {
          "internalType": "address",
          "name": "_address",
          "type": "address"
        }
      ],
      "name": "addHospital",
      "outputs": [],
      "stateMutability": "nonpayable",
      "type": "function"
    },
    {
      "inputs": [
        {
          "internalType": "address",
          "name": "_address",
          "type": "address"
        }
      ],
      "name": "getDoctor",
      "outputs": [
        {
          "internalType": "uint256",
          "name": "",
          "type": "uint256"
        }
      ],
      "stateMutability": "view",
      "type": "function"
    },
    {
      "inputs": [
        {
          "internalType": "uint256",
          "name": "_cipa",
          "type": "uint256"
        }
      ],
      "name": "getFile",
      "outputs": [
        {
          "internalType": "string[]",
          "name": "",
          "type": "string[]"
        }
      ],
      "stateMutability": "view",
      "type": "function"
    }
  ],
  "bytecode": "0x608060405234801561001057600080fd5b50336000806101000a81548173ffffffffffffffffffffffffffffffffffffffff021916908373ffffffffffffffffffffffffffffffffffffffff160217905550336000806101000a81548173ffffffffffffffffffffffffffffffffffffffff021916908373ffffffffffffffffffffffffffffffffffffffff16021790555061129c806100a06000396000f3fe608060405234801561001057600080fd5b50600436106100575760003560e01c80631b470bc71461005c5780632bfda313146100785780632f04e064146100a85780634780468f146100d8578063c3afe30b146100f4575b600080fd5b610076600480360381019061007191906106df565b610110565b005b610092600480360381019061008d9190610742565b610267565b60405161009f91906108c1565b60405180910390f35b6100c260048036038101906100bd91906106df565b610353565b6040516100cf91906108f2565b60405180910390f35b6100f260048036038101906100ed91906106df565b61039c565b005b61010e60048036038101906101099190610a42565b6104e7565b005b60008054906101000a900473ffffffffffffffffffffffffffffffffffffffff1673ffffffffffffffffffffffffffffffffffffffff163373ffffffffffffffffffffffffffffffffffffffff161461019e576040517f08c379a000000000000000000000000000000000000000000000000000000000815260040161019590610b21565b60405180910390fd5b6000600160008373ffffffffffffffffffffffffffffffffffffffff1673ffffffffffffffffffffffffffffffffffffffff1681526020019081526020016000205414610220576040517f08c379a000000000000000000000000000000000000000000000000000000000815260040161021790610bb3565b60405180910390fd5b60018060008373ffffffffffffffffffffffffffffffffffffffff1673ffffffffffffffffffffffffffffffffffffffff1681526020019081526020016000208190555050565b606060036000838152602001908152602001600020805480602002602001604051908101604052809291908181526020016000905b828210156103485783829060005260206000200180546102bb90610c02565b80601f01602080910402602001604051908101604052809291908181526020018280546102e790610c02565b80156103345780601f1061030957610100808354040283529160200191610334565b820191906000526020600020905b81548152906001019060200180831161031757829003601f168201915b50505050508152602001906001019061029c565b505050509050919050565b6000600260008373ffffffffffffffffffffffffffffffffffffffff1673ffffffffffffffffffffffffffffffffffffffff168152602001908152602001600020549050919050565b60018060003373ffffffffffffffffffffffffffffffffffffffff1673ffffffffffffffffffffffffffffffffffffffff168152602001908152602001600020541461041d576040517f08c379a000000000000000000000000000000000000000000000000000000000815260040161041490610ca5565b60405180910390fd5b6000600260008373ffffffffffffffffffffffffffffffffffffffff1673ffffffffffffffffffffffffffffffffffffffff168152602001908152602001600020541461049f576040517f08c379a000000000000000000000000000000000000000000000000000000000815260040161049690610d37565b60405180910390fd5b6001600260008373ffffffffffffffffffffffffffffffffffffffff1673ffffffffffffffffffffffffffffffffffffffff1681526020019081526020016000208190555050565b60016104f233610353565b14610532576040517f08c379a000000000000000000000000000000000000000000000000000000000815260040161052990610dc9565b60405180910390fd5b60005b600360008481526020019081526020016000208054905081101561062257816040516020016105649190610e25565b6040516020818303038152906040528051906020012060036000858152602001908152602001600020828154811061059f5761059e610e3c565b5b906000526020600020016040516020016105b99190610f03565b604051602081830303815290604052805190602001200361060f576040517f08c379a000000000000000000000000000000000000000000000000000000000815260040161060690610f66565b60405180910390fd5b808061061a90610fb5565b915050610535565b5060036000838152602001908152602001600020819080600181540180825580915050600190039060005260206000200160009091909190915090816106689190611194565b505050565b6000604051905090565b600080fd5b600080fd5b600073ffffffffffffffffffffffffffffffffffffffff82169050919050565b60006106ac82610681565b9050919050565b6106bc816106a1565b81146106c757600080fd5b50565b6000813590506106d9816106b3565b92915050565b6000602082840312156106f5576106f4610677565b5b6000610703848285016106ca565b91505092915050565b6000819050919050565b61071f8161070c565b811461072a57600080fd5b50565b60008135905061073c81610716565b92915050565b60006020828403121561075857610757610677565b5b60006107668482850161072d565b91505092915050565b600081519050919050565b600082825260208201905092915050565b6000819050602082019050919050565b600081519050919050565b600082825260208201905092915050565b60005b838110156107d55780820151818401526020810190506107ba565b60008484015250505050565b6000601f19601f8301169050919050565b60006107fd8261079b565b61080781856107a6565b93506108178185602086016107b7565b610820816107e1565b840191505092915050565b600061083783836107f2565b905092915050565b6000602082019050919050565b60006108578261076f565b610861818561077a565b9350836020820285016108738561078b565b8060005b858110156108af5784840389528151610890858261082b565b945061089b8361083f565b925060208a01995050600181019050610877565b50829750879550505050505092915050565b600060208201905081810360008301526108db818461084c565b905092915050565b6108ec8161070c565b82525050565b600060208201905061090760008301846108e3565b92915050565b600080fd5b600080fd5b7f4e487b7100000000000000000000000000000000000000000000000000000000600052604160045260246000fd5b61094f826107e1565b810181811067ffffffffffffffff8211171561096e5761096d610917565b5b80604052505050565b600061098161066d565b905061098d8282610946565b919050565b600067ffffffffffffffff8211156109ad576109ac610917565b5b6109b6826107e1565b9050602081019050919050565b82818337600083830152505050565b60006109e56109e084610992565b610977565b905082815260208101848484011115610a0157610a00610912565b5b610a0c8482856109c3565b509392505050565b600082601f830112610a2957610a2861090d565b5b8135610a398482602086016109d2565b91505092915050565b60008060408385031215610a5957610a58610677565b5b6000610a678582860161072d565b925050602083013567ffffffffffffffff811115610a8857610a8761067c565b5b610a9485828601610a14565b9150509250929050565b600082825260208201905092915050565b7f4f6e6c79206f776e6572206f662074686520736572766963652063616e20616460008201527f642061206e657720686f73706974616c00000000000000000000000000000000602082015250565b6000610b0b603083610a9e565b9150610b1682610aaf565b604082019050919050565b60006020820190508181036000830152610b3a81610afe565b9050919050565b7f486f73706974616c20616c72656164792065786973747320696e20746865207360008201527f797374656d000000000000000000000000000000000000000000000000000000602082015250565b6000610b9d602583610a9e565b9150610ba882610b41565b604082019050919050565b60006020820190508181036000830152610bcc81610b90565b9050919050565b7f4e487b7100000000000000000000000000000000000000000000000000000000600052602260045260246000fd5b60006002820490506001821680610c1a57607f821691505b602082108103610c2d57610c2c610bd3565b5b50919050565b7f4f6e6c7920617574686f72697a656420686f73706974616c2063616e2061646460008201527f2061206e657720646f63746f7200000000000000000000000000000000000000602082015250565b6000610c8f602d83610a9e565b9150610c9a82610c33565b604082019050919050565b60006020820190508181036000830152610cbe81610c82565b9050919050565b7f446f63746f7220616c72656164792065786973747320696e207468652073797360008201527f74656d0000000000000000000000000000000000000000000000000000000000602082015250565b6000610d21602383610a9e565b9150610d2c82610cc5565b604082019050919050565b60006020820190508181036000830152610d5081610d14565b9050919050565b7f4f6e6c7920617574686f72697a656420646f63746f722063616e20616464206660008201527f696c650000000000000000000000000000000000000000000000000000000000602082015250565b6000610db3602383610a9e565b9150610dbe82610d57565b604082019050919050565b60006020820190508181036000830152610de281610da6565b9050919050565b600081905092915050565b6000610dff8261079b565b610e098185610de9565b9350610e198185602086016107b7565b80840191505092915050565b6000610e318284610df4565b915081905092915050565b7f4e487b7100000000000000000000000000000000000000000000000000000000600052603260045260246000fd5b60008190508160005260206000209050919050565b60008154610e8d81610c02565b610e978186610de9565b94506001821660008114610eb25760018114610ec757610efa565b60ff1983168652811515820286019350610efa565b610ed085610e6b565b60005b83811015610ef257815481890152600182019150602081019050610ed3565b838801955050505b50505092915050565b6000610f0f8284610e80565b915081905092915050565b7f46696c6520616c72656164792065786973747300000000000000000000000000600082015250565b6000610f50601383610a9e565b9150610f5b82610f1a565b602082019050919050565b60006020820190508181036000830152610f7f81610f43565b9050919050565b7f4e487b7100000000000000000000000000000000000000000000000000000000600052601160045260246000fd5b6000610fc08261070c565b91507fffffffffffffffffffffffffffffffffffffffffffffffffffffffffffffffff8203610ff257610ff1610f86565b5b600182019050919050565b60006020601f8301049050919050565b600082821b905092915050565b60006008830261104a7fffffffffffffffffffffffffffffffffffffffffffffffffffffffffffffffff8261100d565b611054868361100d565b95508019841693508086168417925050509392505050565b6000819050919050565b600061109161108c6110878461070c565b61106c565b61070c565b9050919050565b6000819050919050565b6110ab83611076565b6110bf6110b782611098565b84845461101a565b825550505050565b600090565b6110d46110c7565b6110df8184846110a2565b505050565b5b81811015611103576110f86000826110cc565b6001810190506110e5565b5050565b601f8211156111485761111981610e6b565b61112284610ffd565b81016020851015611131578190505b61114561113d85610ffd565b8301826110e4565b50505b505050565b600082821c905092915050565b600061116b6000198460080261114d565b1980831691505092915050565b6000611184838361115a565b9150826002028217905092915050565b61119d8261079b565b67ffffffffffffffff8111156111b6576111b5610917565b5b6111c08254610c02565b6111cb828285611107565b600060209050601f8311600181146111fe57600084156111ec578287015190505b6111f68582611178565b86555061125e565b601f19841661120c86610e6b565b60005b828110156112345784890151825560018201915060208501945060208101905061120f565b86831015611251578489015161124d601f89168261115a565b8355505b6001600288020188555050505b50505050505056fea2646970667358221220b797878d65b6e38e82c97e9d238e65a56a90e61f589522c9f579f05ce885902c64736f6c63430008110033",
  "linkReferences": {},
  "deployedLinkReferences": {}
}