{
	"_format": "hh-sol-artifact-1",
	"contractName": "pacientes",
	"sourceName": "contracts/pacientes.sol",
	"abi": [
		{
			"inputs": [],
			"stateMutability": "nonpayable",
			"type": "constructor"
		},
		{
			"inputs": [
				{
					"internalType": "uint256",
					"name": "_cipa",
					"type": "uint256"
				},
				{
					"internalType": "string",
					"name": "_cid",
					"type": "string"
				}
			],
			"name": "addFile",
			"outputs": [],
			"stateMutability": "nonpayable",
			"type": "function"
		},
		{
			"inputs": [
				{
					"internalType": "address",
					"name": "_address",
					"type": "address"
				}
			],
			"name": "addHospital",
			"outputs": [],
			"stateMutability": "nonpayable",
			"type": "function"
		},
		{
			"inputs": [
				{
					"internalType": "address",
					"name": "_address",
					"type": "address"
				}
			],
			"name": "addMedico",
			"outputs": [],
			"stateMutability": "nonpayable",
			"type": "function"
		},
		{
			"inputs": [
				{
					"internalType": "uint256",
					"name": "_cipa",
					"type": "uint256"
				}
			],
			"name": "getFile",
			"outputs": [
				{
					"internalType": "string[]",
					"name": "",
					"type": "string[]"
				}
			],
			"stateMutability": "view",
			"type": "function"
		},
		{
			"inputs": [
				{
					"internalType": "address",
					"name": "_address",
					"type": "address"
				}
			],
			"name": "getMedico",
			"outputs": [
				{
					"internalType": "uint256",
					"name": "",
					"type": "uint256"
				}
			],
			"stateMutability": "view",
			"type": "function"
		}
	],
	"bytecode": "0x608060405234801561001057600080fd5b50336000806101000a81548173ffffffffffffffffffffffffffffffffffffffff021916908373ffffffffffffffffffffffffffffffffffffffff160217905550336000806101000a81548173ffffffffffffffffffffffffffffffffffffffff021916908373ffffffffffffffffffffffffffffffffffffffff160217905550610d38806100a06000396000f3fe608060405234801561001057600080fd5b50600436106100575760003560e01c80630881d5e11461005c5780631b470bc71461008c5780632bfda313146100a85780636b033332146100d8578063c3afe30b146100f4575b600080fd5b610076600480360381019061007191906104ea565b610110565b6040516100839190610530565b60405180910390f35b6100a660048036038101906100a191906104ea565b610159565b005b6100c260048036038101906100bd9190610577565b61022e565b6040516100cf91906106f6565b60405180910390f35b6100f260048036038101906100ed91906104ea565b61031a565b005b61010e6004803603810190610109919061084d565b6103e3565b005b6000600260008373ffffffffffffffffffffffffffffffffffffffff1673ffffffffffffffffffffffffffffffffffffffff168152602001908152602001600020549050919050565b60008054906101000a900473ffffffffffffffffffffffffffffffffffffffff1673ffffffffffffffffffffffffffffffffffffffff163373ffffffffffffffffffffffffffffffffffffffff16146101e7576040517f08c379a00000000000000000000000000000000000000000000000000000000081526004016101de90610906565b60405180910390fd5b60018060008373ffffffffffffffffffffffffffffffffffffffff1673ffffffffffffffffffffffffffffffffffffffff1681526020019081526020016000208190555050565b606060036000838152602001908152602001600020805480602002602001604051908101604052809291908181526020016000905b8282101561030f57838290600052602060002001805461028290610955565b80601f01602080910402602001604051908101604052809291908181526020018280546102ae90610955565b80156102fb5780601f106102d0576101008083540402835291602001916102fb565b820191906000526020600020905b8154815290600101906020018083116102de57829003601f168201915b505050505081526020019060010190610263565b505050509050919050565b60018060003373ffffffffffffffffffffffffffffffffffffffff1673ffffffffffffffffffffffffffffffffffffffff168152602001908152602001600020541461039b576040517f08c379a0000000000000000000000000000000000000000000000000000000008152600401610392906109d2565b60405180910390fd5b6001600260008373ffffffffffffffffffffffffffffffffffffffff1673ffffffffffffffffffffffffffffffffffffffff1681526020019081526020016000208190555050565b60016103ee33610110565b1461042e576040517f08c379a000000000000000000000000000000000000000000000000000000000815260040161042590610a64565b60405180910390fd5b60036000838152602001908152602001600020819080600181540180825580915050600190039060005260206000200160009091909190915090816104739190610c30565b505050565b6000604051905090565b600080fd5b600080fd5b600073ffffffffffffffffffffffffffffffffffffffff82169050919050565b60006104b78261048c565b9050919050565b6104c7816104ac565b81146104d257600080fd5b50565b6000813590506104e4816104be565b92915050565b600060208284031215610500576104ff610482565b5b600061050e848285016104d5565b91505092915050565b6000819050919050565b61052a81610517565b82525050565b60006020820190506105456000830184610521565b92915050565b61055481610517565b811461055f57600080fd5b50565b6000813590506105718161054b565b92915050565b60006020828403121561058d5761058c610482565b5b600061059b84828501610562565b91505092915050565b600081519050919050565b600082825260208201905092915050565b6000819050602082019050919050565b600081519050919050565b600082825260208201905092915050565b60005b8381101561060a5780820151818401526020810190506105ef565b60008484015250505050565b6000601f19601f8301169050919050565b6000610632826105d0565b61063c81856105db565b935061064c8185602086016105ec565b61065581610616565b840191505092915050565b600061066c8383610627565b905092915050565b6000602082019050919050565b600061068c826105a4565b61069681856105af565b9350836020820285016106a8856105c0565b8060005b858110156106e457848403895281516106c58582610660565b94506106d083610674565b925060208a019950506001810190506106ac565b50829750879550505050505092915050565b600060208201905081810360008301526107108184610681565b905092915050565b600080fd5b600080fd5b7f4e487b7100000000000000000000000000000000000000000000000000000000600052604160045260246000fd5b61075a82610616565b810181811067ffffffffffffffff8211171561077957610778610722565b5b80604052505050565b600061078c610478565b90506107988282610751565b919050565b600067ffffffffffffffff8211156107b8576107b7610722565b5b6107c182610616565b9050602081019050919050565b82818337600083830152505050565b60006107f06107eb8461079d565b610782565b90508281526020810184848401111561080c5761080b61071d565b5b6108178482856107ce565b509392505050565b600082601f83011261083457610833610718565b5b81356108448482602086016107dd565b91505092915050565b6000806040838503121561086457610863610482565b5b600061087285828601610562565b925050602083013567ffffffffffffffff81111561089357610892610487565b5b61089f8582860161081f565b9150509250929050565b600082825260208201905092915050565b7f4f6e6c79206f776e65722063616e206164642061646d696e0000000000000000600082015250565b60006108f06018836108a9565b91506108fb826108ba565b602082019050919050565b6000602082019050818103600083015261091f816108e3565b9050919050565b7f4e487b7100000000000000000000000000000000000000000000000000000000600052602260045260246000fd5b6000600282049050600182168061096d57607f821691505b6020821081036109805761097f610926565b5b50919050565b7f4f6e6c7920686f73706974616c2063616e206164642061646d696e0000000000600082015250565b60006109bc601b836108a9565b91506109c782610986565b602082019050919050565b600060208201905081810360008301526109eb816109af565b9050919050565b7f4f6e6c7920617574686f72697a656420646f63746f722063616e20616464206660008201527f696c650000000000000000000000000000000000000000000000000000000000602082015250565b6000610a4e6023836108a9565b9150610a59826109f2565b604082019050919050565b60006020820190508181036000830152610a7d81610a41565b9050919050565b60008190508160005260206000209050919050565b60006020601f8301049050919050565b600082821b905092915050565b600060088302610ae67fffffffffffffffffffffffffffffffffffffffffffffffffffffffffffffffff82610aa9565b610af08683610aa9565b95508019841693508086168417925050509392505050565b6000819050919050565b6000610b2d610b28610b2384610517565b610b08565b610517565b9050919050565b6000819050919050565b610b4783610b12565b610b5b610b5382610b34565b848454610ab6565b825550505050565b600090565b610b70610b63565b610b7b818484610b3e565b505050565b5b81811015610b9f57610b94600082610b68565b600181019050610b81565b5050565b601f821115610be457610bb581610a84565b610bbe84610a99565b81016020851015610bcd578190505b610be1610bd985610a99565b830182610b80565b50505b505050565b600082821c905092915050565b6000610c0760001984600802610be9565b1980831691505092915050565b6000610c208383610bf6565b9150826002028217905092915050565b610c39826105d0565b67ffffffffffffffff811115610c5257610c51610722565b5b610c5c8254610955565b610c67828285610ba3565b600060209050601f831160018114610c9a5760008415610c88578287015190505b610c928582610c14565b865550610cfa565b601f198416610ca886610a84565b60005b82811015610cd057848901518255600182019150602085019450602081019050610cab565b86831015610ced5784890151610ce9601f891682610bf6565b8355505b6001600288020188555050505b50505050505056fea26469706673582212204f62609a6e7315bbe740f8ecf808f00b7dd455265f461f017b5f9c5cb5291e2b64736f6c63430008110033",
	"linkReferences": {},
	"deployedLinkReferences": {}
}